{
  "_format": "hh-sol-artifact-1",
  "contractName": "PixelWooks",
  "sourceName": "contracts/pixelwooks.sol",
  "abi": [
    {
      "inputs": [
        {
          "internalType": "string",
          "name": "_baseURI",
          "type": "string"
        }
      ],
      "stateMutability": "nonpayable",
      "type": "constructor"
    },
    {
      "anonymous": false,
      "inputs": [
        {
          "indexed": true,
          "internalType": "address",
          "name": "owner",
          "type": "address"
        },
        {
          "indexed": true,
          "internalType": "address",
          "name": "spender",
          "type": "address"
        },
        {
          "indexed": true,
          "internalType": "uint256",
          "name": "id",
          "type": "uint256"
        }
      ],
      "name": "Approval",
      "type": "event"
    },
    {
      "anonymous": false,
      "inputs": [
        {
          "indexed": true,
          "internalType": "address",
          "name": "owner",
          "type": "address"
        },
        {
          "indexed": true,
          "internalType": "address",
          "name": "operator",
          "type": "address"
        },
        {
          "indexed": false,
          "internalType": "bool",
          "name": "approved",
          "type": "bool"
        }
      ],
      "name": "ApprovalForAll",
      "type": "event"
    },
    {
      "anonymous": false,
      "inputs": [
        {
          "indexed": true,
          "internalType": "uint256",
          "name": "_id",
          "type": "uint256"
        }
      ],
      "name": "CelebMinted",
      "type": "event"
    },
    {
      "anonymous": false,
      "inputs": [
        {
          "indexed": true,
          "internalType": "uint256",
          "name": "_id",
          "type": "uint256"
        }
      ],
      "name": "Minted",
      "type": "event"
    },
    {
      "anonymous": false,
      "inputs": [
        {
          "indexed": true,
          "internalType": "address",
          "name": "previousOwner",
          "type": "address"
        },
        {
          "indexed": true,
          "internalType": "address",
          "name": "newOwner",
          "type": "address"
        }
      ],
      "name": "OwnershipTransferred",
      "type": "event"
    },
    {
      "anonymous": false,
      "inputs": [
        {
          "indexed": false,
          "internalType": "address",
          "name": "account",
          "type": "address"
        }
      ],
      "name": "Paused",
      "type": "event"
    },
    {
      "anonymous": false,
      "inputs": [
        {
          "indexed": true,
          "internalType": "address",
          "name": "from",
          "type": "address"
        },
        {
          "indexed": true,
          "internalType": "address",
          "name": "to",
          "type": "address"
        },
        {
          "indexed": true,
          "internalType": "uint256",
          "name": "id",
          "type": "uint256"
        }
      ],
      "name": "Transfer",
      "type": "event"
    },
    {
      "anonymous": false,
      "inputs": [
        {
          "indexed": false,
          "internalType": "address",
          "name": "account",
          "type": "address"
        }
      ],
      "name": "Unpaused",
      "type": "event"
    },
    {
      "inputs": [],
      "name": "MAX_ALLSTAR",
      "outputs": [
        {
          "internalType": "uint16",
          "name": "",
          "type": "uint16"
        }
      ],
      "stateMutability": "view",
      "type": "function"
    },
    {
      "inputs": [],
      "name": "MAX_WOOKS",
      "outputs": [
        {
          "internalType": "uint16",
          "name": "",
          "type": "uint16"
        }
      ],
      "stateMutability": "view",
      "type": "function"
    },
    {
      "inputs": [
        {
          "internalType": "address",
          "name": "spender",
          "type": "address"
        },
        {
          "internalType": "uint256",
          "name": "id",
          "type": "uint256"
        }
      ],
      "name": "approve",
      "outputs": [],
      "stateMutability": "nonpayable",
      "type": "function"
    },
    {
      "inputs": [
        {
          "internalType": "address",
          "name": "owner",
          "type": "address"
        }
      ],
      "name": "balanceOf",
      "outputs": [
        {
          "internalType": "uint256",
          "name": "",
          "type": "uint256"
        }
      ],
      "stateMutability": "view",
      "type": "function"
    },
    {
      "inputs": [],
      "name": "baseURI",
      "outputs": [
        {
          "internalType": "string",
          "name": "",
          "type": "string"
        }
      ],
      "stateMutability": "view",
      "type": "function"
    },
    {
      "inputs": [],
      "name": "currentTokenId",
      "outputs": [
        {
          "internalType": "uint16",
          "name": "",
          "type": "uint16"
        }
      ],
      "stateMutability": "view",
      "type": "function"
    },
    {
      "inputs": [],
      "name": "flipSaleState",
      "outputs": [],
      "stateMutability": "nonpayable",
      "type": "function"
    },
    {
      "inputs": [
        {
          "internalType": "uint256",
          "name": "",
          "type": "uint256"
        }
      ],
      "name": "getApproved",
      "outputs": [
        {
          "internalType": "address",
          "name": "",
          "type": "address"
        }
      ],
      "stateMutability": "view",
      "type": "function"
    },
    {
      "inputs": [
        {
          "internalType": "address",
          "name": "",
          "type": "address"
        },
        {
          "internalType": "address",
          "name": "",
          "type": "address"
        }
      ],
      "name": "isApprovedForAll",
      "outputs": [
        {
          "internalType": "bool",
          "name": "",
          "type": "bool"
        }
      ],
      "stateMutability": "view",
      "type": "function"
    },
    {
      "inputs": [],
      "name": "maxMintPerAddress",
      "outputs": [
        {
          "internalType": "uint8",
          "name": "",
          "type": "uint8"
        }
      ],
      "stateMutability": "view",
      "type": "function"
    },
    {
      "inputs": [
        {
          "internalType": "uint256",
          "name": "numberOfTokens",
          "type": "uint256"
        }
      ],
      "name": "mintWook",
      "outputs": [],
      "stateMutability": "payable",
      "type": "function"
    },
    {
      "inputs": [],
      "name": "name",
      "outputs": [
        {
          "internalType": "string",
          "name": "",
          "type": "string"
        }
      ],
      "stateMutability": "view",
      "type": "function"
    },
    {
      "inputs": [],
      "name": "owner",
      "outputs": [
        {
          "internalType": "address",
          "name": "",
          "type": "address"
        }
      ],
      "stateMutability": "view",
      "type": "function"
    },
    {
      "inputs": [
        {
          "internalType": "uint256",
          "name": "id",
          "type": "uint256"
        }
      ],
      "name": "ownerOf",
      "outputs": [
        {
          "internalType": "address",
          "name": "owner",
          "type": "address"
        }
      ],
      "stateMutability": "view",
      "type": "function"
    },
    {
      "inputs": [],
      "name": "pause",
      "outputs": [],
      "stateMutability": "nonpayable",
      "type": "function"
    },
    {
      "inputs": [],
      "name": "paused",
      "outputs": [
        {
          "internalType": "bool",
          "name": "",
          "type": "bool"
        }
      ],
      "stateMutability": "view",
      "type": "function"
    },
    {
      "inputs": [],
      "name": "renounceOwnership",
      "outputs": [],
      "stateMutability": "nonpayable",
      "type": "function"
    },
    {
      "inputs": [],
      "name": "reserveWooks",
      "outputs": [],
      "stateMutability": "nonpayable",
      "type": "function"
    },
    {
      "inputs": [
        {
          "internalType": "string",
          "name": "_newBaseURI",
          "type": "string"
        }
      ],
      "name": "reveal",
      "outputs": [],
      "stateMutability": "nonpayable",
      "type": "function"
    },
    {
      "inputs": [],
      "name": "revealed",
      "outputs": [
        {
          "internalType": "bool",
          "name": "",
          "type": "bool"
        }
      ],
      "stateMutability": "view",
      "type": "function"
    },
    {
      "inputs": [
        {
          "internalType": "address",
          "name": "from",
          "type": "address"
        },
        {
          "internalType": "address",
          "name": "to",
          "type": "address"
        },
        {
          "internalType": "uint256",
          "name": "id",
          "type": "uint256"
        }
      ],
      "name": "safeTransferFrom",
      "outputs": [],
      "stateMutability": "nonpayable",
      "type": "function"
    },
    {
      "inputs": [
        {
          "internalType": "address",
          "name": "from",
          "type": "address"
        },
        {
          "internalType": "address",
          "name": "to",
          "type": "address"
        },
        {
          "internalType": "uint256",
          "name": "id",
          "type": "uint256"
        },
        {
          "internalType": "bytes",
          "name": "data",
          "type": "bytes"
        }
      ],
      "name": "safeTransferFrom",
      "outputs": [],
      "stateMutability": "nonpayable",
      "type": "function"
    },
    {
      "inputs": [],
      "name": "saleIsActive",
      "outputs": [
        {
          "internalType": "bool",
          "name": "",
          "type": "bool"
        }
      ],
      "stateMutability": "view",
      "type": "function"
    },
    {
      "inputs": [
        {
          "internalType": "address",
          "name": "operator",
          "type": "address"
        },
        {
          "internalType": "bool",
          "name": "approved",
          "type": "bool"
        }
      ],
      "name": "setApprovalForAll",
      "outputs": [],
      "stateMutability": "nonpayable",
      "type": "function"
    },
    {
      "inputs": [
        {
          "internalType": "bytes4",
          "name": "interfaceId",
          "type": "bytes4"
        }
      ],
      "name": "supportsInterface",
      "outputs": [
        {
          "internalType": "bool",
          "name": "",
          "type": "bool"
        }
      ],
      "stateMutability": "view",
      "type": "function"
    },
    {
      "inputs": [],
      "name": "symbol",
      "outputs": [
        {
          "internalType": "string",
          "name": "",
          "type": "string"
        }
      ],
      "stateMutability": "view",
      "type": "function"
    },
    {
      "inputs": [
        {
          "internalType": "uint256",
          "name": "tokenId",
          "type": "uint256"
        }
      ],
      "name": "tokenURI",
      "outputs": [
        {
          "internalType": "string",
          "name": "",
          "type": "string"
        }
      ],
      "stateMutability": "view",
      "type": "function"
    },
    {
      "inputs": [
        {
          "internalType": "address",
          "name": "from",
          "type": "address"
        },
        {
          "internalType": "address",
          "name": "to",
          "type": "address"
        },
        {
          "internalType": "uint256",
          "name": "id",
          "type": "uint256"
        }
      ],
      "name": "transferFrom",
      "outputs": [],
      "stateMutability": "nonpayable",
      "type": "function"
    },
    {
      "inputs": [
        {
          "internalType": "address",
          "name": "newOwner",
          "type": "address"
        }
      ],
      "name": "transferOwnership",
      "outputs": [],
      "stateMutability": "nonpayable",
      "type": "function"
    },
    {
      "inputs": [],
      "name": "unpause",
      "outputs": [],
      "stateMutability": "nonpayable",
      "type": "function"
    },
    {
      "inputs": [
        {
          "internalType": "address payable",
          "name": "payee",
          "type": "address"
        }
      ],
      "name": "withdraw",
      "outputs": [],
      "stateMutability": "nonpayable",
      "type": "function"
    }
  ],
  "bytecode": "0x60806040526008805464ffff0000ff1916600a1790553480156200002257600080fd5b5060405162001fd338038062001fd38339810160408190526200004591620001f9565b604080518082018252600a815269506978656c776f6f6b7360b01b602080830191825283518085019094526009845268706978656c776f6f6b60b81b90840152815191929162000098916000916200013d565b508051620000ae9060019060208401906200013d565b50506006805460ff1916905550620000c633620000e3565b8051620000db9060079060208401906200013d565b505062000312565b600680546001600160a01b03838116610100818102610100600160a81b031985161790945560405193909204169182907f8be0079c531659141344cd1fd0a4f28419497f9722a3daafe3b4186f6b6457e090600090a35050565b8280546200014b90620002d5565b90600052602060002090601f0160209004810192826200016f5760008555620001ba565b82601f106200018a57805160ff1916838001178555620001ba565b82800160010185558215620001ba579182015b82811115620001ba5782518255916020019190600101906200019d565b50620001c8929150620001cc565b5090565b5b80821115620001c85760008155600101620001cd565b634e487b7160e01b600052604160045260246000fd5b600060208083850312156200020d57600080fd5b82516001600160401b03808211156200022557600080fd5b818501915085601f8301126200023a57600080fd5b8151818111156200024f576200024f620001e3565b604051601f8201601f19908116603f011681019083821181831017156200027a576200027a620001e3565b8160405282815288868487010111156200029357600080fd5b600093505b82841015620002b7578484018601518185018701529285019262000298565b82841115620002c95760008684830101525b98975050505050505050565b600181811c90821680620002ea57607f821691505b602082108114156200030c57634e487b7160e01b600052602260045260246000fd5b50919050565b611cb180620003226000396000f3fe6080604052600436106101675760003560e01c80629a9b7b1461016c57806301ffc9a7146101a457806306fdde03146101d4578063081812fc146101f6578063095ea7b31461023957806323b872dd1461025b57806332eee8381461027b57806334918dfd146102915780633f4ba83a146102a657806342842e0e146102bb5780634a924b9c146102db5780634c261247146102f05780634f5e76eb14610310578063518302271461032557806351cff8d914610346578063572849c4146103665780635c975abb146103925780636352211e146103aa5780636c0360eb146103ca57806370a08231146103df578063715018a61461040d5780638456cb59146104225780638da5cb5b1461043757806395d89b411461044c578063a22cb46514610461578063a67d9f1414610481578063b88d4fde14610494578063c87b56dd146104b4578063e985e9c5146104d4578063eb8d24441461050f578063f2fde38b14610530575b600080fd5b34801561017857600080fd5b5060085461018c90610100900461ffff1681565b60405161ffff90911681526020015b60405180910390f35b3480156101b057600080fd5b506101c46101bf3660046115dd565b610550565b604051901515815260200161019b565b3480156101e057600080fd5b506101e96105a2565b60405161019b9190611631565b34801561020257600080fd5b5061022c610211366004611664565b6004602052600090815260409020546001600160a01b031681565b60405161019b919061167d565b34801561024557600080fd5b506102596102543660046116a6565b610630565b005b34801561026757600080fd5b506102596102763660046116d2565b6106fa565b34801561028757600080fd5b5061018c61138881565b34801561029d57600080fd5b5061025961086a565b3480156102b257600080fd5b50610259610893565b3480156102c757600080fd5b506102596102d63660046116d2565b6108a5565b3480156102e757600080fd5b5061018c607181565b3480156102fc57600080fd5b5061025961030b366004611729565b610964565b34801561031c57600080fd5b50610259610996565b34801561033157600080fd5b506008546101c490600160201b900460ff1681565b34801561035257600080fd5b506102596103613660046117d9565b610aa2565b34801561037257600080fd5b506008546103809060ff1681565b60405160ff909116815260200161019b565b34801561039e57600080fd5b5060065460ff166101c4565b3480156103b657600080fd5b5061022c6103c5366004611664565b610b40565b3480156103d657600080fd5b506101e9610b97565b3480156103eb57600080fd5b506103ff6103fa3660046117d9565b610ba4565b60405190815260200161019b565b34801561041957600080fd5b50610259610c07565b34801561042e57600080fd5b50610259610c19565b34801561044357600080fd5b5061022c610c29565b34801561045857600080fd5b506101e9610c3d565b34801561046d57600080fd5b5061025961047c3660046117f6565b610c4a565b61025961048f366004611664565b610cb6565b3480156104a057600080fd5b506102596104af366004611834565b610e35565b3480156104c057600080fd5b506101e96104cf366004611664565b610efa565b3480156104e057600080fd5b506101c46104ef3660046118d2565b600560209081526000928352604080842090915290825290205460ff1681565b34801561051b57600080fd5b506008546101c4906301000000900460ff1681565b34801561053c57600080fd5b5061025961054b3660046117d9565b611053565b60006301ffc9a760e01b6001600160e01b03198316148061058157506380ac58cd60e01b6001600160e01b03198316145b8061059c5750635b5e139f60e01b6001600160e01b03198316145b92915050565b600080546105af90611900565b80601f01602080910402602001604051908101604052809291908181526020018280546105db90611900565b80156106285780601f106105fd57610100808354040283529160200191610628565b820191906000526020600020905b81548152906001019060200180831161060b57829003601f168201915b505050505081565b6000818152600260205260409020546001600160a01b03163381148061067957506001600160a01b038116600090815260056020908152604080832033845290915290205460ff165b61069e5760405162461bcd60e51b81526004016106959061193b565b60405180910390fd5b60008281526004602052604080822080546001600160a01b0319166001600160a01b0387811691821790925591518593918516917f8c5be1e5ebec7d5bd14f71427d1e84f3dd0314c0f7b2291e5b200ac8c7c3b92591a4505050565b6000818152600260205260409020546001600160a01b038481169116146107505760405162461bcd60e51b815260206004820152600a60248201526957524f4e475f46524f4d60b01b6044820152606401610695565b6001600160a01b0382166107765760405162461bcd60e51b815260040161069590611963565b336001600160a01b03841614806107b057506001600160a01b038316600090815260056020908152604080832033845290915290205460ff165b806107d157506000818152600460205260409020546001600160a01b031633145b6107ed5760405162461bcd60e51b81526004016106959061193b565b6001600160a01b0380841660008181526003602090815260408083208054600019019055938616808352848320805460010190558583526002825284832080546001600160a01b0319908116831790915560049092528483208054909216909155925184939291600080516020611c3c83398151915291a4505050565b6108726110c9565b6008805463ff00000019811663010000009182900460ff1615909102179055565b61089b6110c9565b6108a3611128565b565b6108b08383836106fa565b6001600160a01b0382163b15806109435750604051630a85bd0160e11b808252906001600160a01b0384169063150b7a02906108f49033908890879060040161198e565b6020604051808303816000875af1158015610913573d6000803e3d6000fd5b505050506040513d601f19601f8201168201806040525081019061093791906119c1565b6001600160e01b031916145b61095f5760405162461bcd60e51b8152600401610695906119de565b505050565b61096c6110c9565b6008805460ff60201b1916600160201b179055805161099290600790602084019061152e565b5050565b61099e6110c9565b60005b60648160ff161015610a2f576008546109c4903390610100900461ffff16611174565b60085460405161010090910461ffff1690600080516020611c5c83398151915290600090a260088054600190610a0290610100900461ffff16611a1e565b91906101000a81548161ffff021916908361ffff1602179055508080610a2790611a40565b9150506109a1565b506113885b610a416071611388611a60565b61ffff168161ffff161015610a9f57610a5e338261ffff16611174565b60405161ffff8216907f378f62621daf723429a1d4ac363faa82c55513ec6c0f8f621c1bbe407619f74590600090a280610a9781611a1e565b915050610a34565b50565b610aaa6110c9565b60405147906000906001600160a01b0384169083908381818185875af1925050503d8060008114610af7576040519150601f19603f3d011682016040523d82523d6000602084013e610afc565b606091505b505090508061095f5760405162461bcd60e51b815260206004820152601060248201526f2bb4ba34323930bbaa3930b739b332b960811b6044820152606401610695565b6000818152600260205260409020546001600160a01b031680610b925760405162461bcd60e51b815260206004820152600a6024820152691393d517d3525395115160b21b6044820152606401610695565b919050565b600780546105af90611900565b60006001600160a01b038216610beb5760405162461bcd60e51b815260206004820152600c60248201526b5a45524f5f4144445245535360a01b6044820152606401610695565b506001600160a01b031660009081526003602052604090205490565b610c0f6110c9565b6108a3600061122e565b610c216110c9565b6108a3611288565b60065461010090046001600160a01b031690565b600180546105af90611900565b3360008181526005602090815260408083206001600160a01b03871680855290835292819020805460ff191686151590811790915590519081529192917f17307eab39ab6107e8899845ad3d59bd9653f200f220920489ca2b5937696c31910160405180910390a35050565b610cbe6112c5565b6008546301000000900460ff16610d035760405162461bcd60e51b81526020600482015260096024820152684e6f7441637469766560b81b6044820152606401610695565b60085461138890610d1d90610100900461ffff1683611a86565b1115610d575760405162461bcd60e51b81526020600482015260096024820152684d6178537570706c7960b81b6044820152606401610695565b60085460ff16610d6633610ba4565b610d709083611a86565b1115610da85760405162461bcd60e51b815260206004820152600760248201526613585e135a5b9d60ca1b6044820152606401610695565b60005b8181101561099257600854610dca903390610100900461ffff16611174565b60085460405161010090910461ffff1690600080516020611c5c83398151915290600090a260088054600190610e0890610100900461ffff16611a1e565b91906101000a81548161ffff021916908361ffff1602179055508080610e2d90611a9e565b915050610dab565b610e408585856106fa565b6001600160a01b0384163b1580610ed75750604051630a85bd0160e11b808252906001600160a01b0386169063150b7a0290610e889033908a90899089908990600401611ab9565b6020604051808303816000875af1158015610ea7573d6000803e3d6000fd5b505050506040513d601f19601f82011682018060405250810190610ecb91906119c1565b6001600160e01b031916145b610ef35760405162461bcd60e51b8152600401610695906119de565b5050505050565b60606000610f0783610b40565b6001600160a01b03161415610f545760405162461bcd60e51b81526020600482015260136024820152724e6f6e4578697374656e74546f6b656e55524960681b6044820152606401610695565b600854600160201b900460ff16610ff75760078054610f7290611900565b80601f0160208091040260200160405190810160405280929190818152602001828054610f9e90611900565b8015610feb5780601f10610fc057610100808354040283529160200191610feb565b820191906000526020600020905b815481529060010190602001808311610fce57829003601f168201915b50505050509050919050565b60006007805461100690611900565b905011611022576040518060200160405280600081525061059c565b600761102d8361130b565b60405160200161103e929190611b29565b60405160208183030381529060405292915050565b61105b6110c9565b6001600160a01b0381166110c05760405162461bcd60e51b815260206004820152602660248201527f4f776e61626c653a206e6577206f776e657220697320746865207a65726f206160448201526564647265737360d01b6064820152608401610695565b610a9f8161122e565b336110d2610c29565b6001600160a01b0316146108a35760405162461bcd60e51b815260206004820181905260248201527f4f776e61626c653a2063616c6c6572206973206e6f7420746865206f776e65726044820152606401610695565b611130611410565b6006805460ff191690557f5db9ee0a495bf2e6ff9c91a7834c1ba4fdd244a5e8aa4e537bd38aeae4b073aa335b60405161116a919061167d565b60405180910390a1565b61117e8282611459565b6001600160a01b0382163b15806112125750604051630a85bd0160e11b808252906001600160a01b0384169063150b7a02906111c3903390600090879060040161198e565b6020604051808303816000875af11580156111e2573d6000803e3d6000fd5b505050506040513d601f19601f8201168201806040525081019061120691906119c1565b6001600160e01b031916145b6109925760405162461bcd60e51b8152600401610695906119de565b600680546001600160a01b03838116610100818102610100600160a81b031985161790945560405193909204169182907f8be0079c531659141344cd1fd0a4f28419497f9722a3daafe3b4186f6b6457e090600090a35050565b6112906112c5565b6006805460ff191660011790557f62e78cea01bee320cd4e420270b5ea74000d11b0c9f74754ebdbfc544b05a25861115d3390565b60065460ff16156108a35760405162461bcd60e51b815260206004820152601060248201526f14185d5cd8589b194e881c185d5cd95960821b6044820152606401610695565b60608161132f5750506040805180820190915260018152600360fc1b602082015290565b8160005b8115611359578061134381611a9e565b91506113529050600a83611be6565b9150611333565b6000816001600160401b0381111561137357611373611713565b6040519080825280601f01601f19166020018201604052801561139d576020820181803683370190505b5090505b8415611408576113b2600183611bfa565b91506113bf600a86611c11565b6113ca906030611a86565b60f81b8183815181106113df576113df611c25565b60200101906001600160f81b031916908160001a905350611401600a86611be6565b94506113a1565b949350505050565b60065460ff166108a35760405162461bcd60e51b815260206004820152601460248201527314185d5cd8589b194e881b9bdd081c185d5cd95960621b6044820152606401610695565b6001600160a01b03821661147f5760405162461bcd60e51b815260040161069590611963565b6000818152600260205260409020546001600160a01b0316156114d55760405162461bcd60e51b815260206004820152600e60248201526d1053149150511657d3525395115160921b6044820152606401610695565b6001600160a01b038216600081815260036020908152604080832080546001019055848352600290915280822080546001600160a01b031916841790555183929190600080516020611c3c833981519152908290a45050565b82805461153a90611900565b90600052602060002090601f01602090048101928261155c57600085556115a2565b82601f1061157557805160ff19168380011785556115a2565b828001600101855582156115a2579182015b828111156115a2578251825591602001919060010190611587565b506115ae9291506115b2565b5090565b5b808211156115ae57600081556001016115b3565b6001600160e01b031981168114610a9f57600080fd5b6000602082840312156115ef57600080fd5b81356115fa816115c7565b9392505050565b60005b8381101561161c578181015183820152602001611604565b8381111561162b576000848401525b50505050565b6020815260008251806020840152611650816040850160208701611601565b601f01601f19169190910160400192915050565b60006020828403121561167657600080fd5b5035919050565b6001600160a01b0391909116815260200190565b6001600160a01b0381168114610a9f57600080fd5b600080604083850312156116b957600080fd5b82356116c481611691565b946020939093013593505050565b6000806000606084860312156116e757600080fd5b83356116f281611691565b9250602084013561170281611691565b929592945050506040919091013590565b634e487b7160e01b600052604160045260246000fd5b60006020828403121561173b57600080fd5b81356001600160401b038082111561175257600080fd5b818401915084601f83011261176657600080fd5b81358181111561177857611778611713565b604051601f8201601f19908116603f011681019083821181831017156117a0576117a0611713565b816040528281528760208487010111156117b957600080fd5b826020860160208301376000928101602001929092525095945050505050565b6000602082840312156117eb57600080fd5b81356115fa81611691565b6000806040838503121561180957600080fd5b823561181481611691565b91506020830135801515811461182957600080fd5b809150509250929050565b60008060008060006080868803121561184c57600080fd5b853561185781611691565b9450602086013561186781611691565b93506040860135925060608601356001600160401b038082111561188a57600080fd5b818801915088601f83011261189e57600080fd5b8135818111156118ad57600080fd5b8960208285010111156118bf57600080fd5b9699959850939650602001949392505050565b600080604083850312156118e557600080fd5b82356118f081611691565b9150602083013561182981611691565b600181811c9082168061191457607f821691505b6020821081141561193557634e487b7160e01b600052602260045260246000fd5b50919050565b6020808252600e908201526d1393d517d055551213d49256915160921b604082015260600190565b6020808252601190820152701253959053125117d49150d25412515395607a1b604082015260600190565b6001600160a01b039384168152919092166020820152604081019190915260806060820181905260009082015260a00190565b6000602082840312156119d357600080fd5b81516115fa816115c7565b60208082526010908201526f155394d0519157d49150d2541251539560821b604082015260600190565b634e487b7160e01b600052601160045260246000fd5b600061ffff80831681811415611a3657611a36611a08565b6001019392505050565b600060ff821660ff811415611a5757611a57611a08565b60010192915050565b600061ffff808316818516808303821115611a7d57611a7d611a08565b01949350505050565b60008219821115611a9957611a99611a08565b500190565b6000600019821415611ab257611ab2611a08565b5060010190565b6001600160a01b038681168252851660208201526040810184905260806060820181905281018290526000828460a0840137600060a0848401015260a0601f19601f85011683010190509695505050505050565b60008151611b1f818560208601611601565b9290920192915050565b600080845481600182811c915080831680611b4557607f831692505b6020808410821415611b6557634e487b7160e01b86526022600452602486fd5b818015611b795760018114611b8a57611bb7565b60ff19861689528489019650611bb7565b60008b81526020902060005b86811015611baf5781548b820152908501908301611b96565b505084890196505b505050505050611bc78185611b0d565b95945050505050565b634e487b7160e01b600052601260045260246000fd5b600082611bf557611bf5611bd0565b500490565b600082821015611c0c57611c0c611a08565b500390565b600082611c2057611c20611bd0565b500690565b634e487b7160e01b600052603260045260246000fdfeddf252ad1be2c89b69c2b068fc378daa952ba7f163c4a11628f55a4df523b3ef176b02bb2d12439ff7a20b59f402cca16c76f50508b13ef3166a600eb719354aa264697066735822122046499b792693ed53c56e617e794453cd0e8609b603655a84e9a5c0b8c169371f64736f6c634300080a0033",
  "linkReferences": {},
  "deployedLinkReferences": {}
}