{
  "_format": "hh-sol-artifact-1",
  "contractName": "PixelWooks",
  "sourceName": "contracts/pixelwooks.sol",
  "abi": [
    {
      "inputs": [
        {
          "internalType": "string",
          "name": "_baseURI",
          "type": "string"
        }
      ],
      "stateMutability": "nonpayable",
      "type": "constructor"
    },
    {
      "inputs": [],
      "name": "MaxMint",
      "type": "error"
    },
    {
      "inputs": [],
      "name": "MaxSupply",
      "type": "error"
    },
    {
      "inputs": [],
      "name": "NonExistentTokenURI",
      "type": "error"
    },
    {
      "inputs": [],
      "name": "NotActive",
      "type": "error"
    },
    {
      "inputs": [],
      "name": "WithdrawTransfer",
      "type": "error"
    },
    {
      "anonymous": false,
      "inputs": [
        {
          "indexed": true,
          "internalType": "address",
          "name": "owner",
          "type": "address"
        },
        {
          "indexed": true,
          "internalType": "address",
          "name": "spender",
          "type": "address"
        },
        {
          "indexed": true,
          "internalType": "uint256",
          "name": "id",
          "type": "uint256"
        }
      ],
      "name": "Approval",
      "type": "event"
    },
    {
      "anonymous": false,
      "inputs": [
        {
          "indexed": true,
          "internalType": "address",
          "name": "owner",
          "type": "address"
        },
        {
          "indexed": true,
          "internalType": "address",
          "name": "operator",
          "type": "address"
        },
        {
          "indexed": false,
          "internalType": "bool",
          "name": "approved",
          "type": "bool"
        }
      ],
      "name": "ApprovalForAll",
      "type": "event"
    },
    {
      "anonymous": false,
      "inputs": [
        {
          "indexed": true,
          "internalType": "uint256",
          "name": "_id",
          "type": "uint256"
        }
      ],
      "name": "CelebMinted",
      "type": "event"
    },
    {
      "anonymous": false,
      "inputs": [
        {
          "indexed": true,
          "internalType": "uint256",
          "name": "_id",
          "type": "uint256"
        }
      ],
      "name": "Minted",
      "type": "event"
    },
    {
      "anonymous": false,
      "inputs": [
        {
          "indexed": true,
          "internalType": "address",
          "name": "previousOwner",
          "type": "address"
        },
        {
          "indexed": true,
          "internalType": "address",
          "name": "newOwner",
          "type": "address"
        }
      ],
      "name": "OwnershipTransferred",
      "type": "event"
    },
    {
      "anonymous": false,
      "inputs": [
        {
          "indexed": false,
          "internalType": "address",
          "name": "account",
          "type": "address"
        }
      ],
      "name": "Paused",
      "type": "event"
    },
    {
      "anonymous": false,
      "inputs": [
        {
          "indexed": true,
          "internalType": "address",
          "name": "from",
          "type": "address"
        },
        {
          "indexed": true,
          "internalType": "address",
          "name": "to",
          "type": "address"
        },
        {
          "indexed": true,
          "internalType": "uint256",
          "name": "id",
          "type": "uint256"
        }
      ],
      "name": "Transfer",
      "type": "event"
    },
    {
      "anonymous": false,
      "inputs": [
        {
          "indexed": false,
          "internalType": "address",
          "name": "account",
          "type": "address"
        }
      ],
      "name": "Unpaused",
      "type": "event"
    },
    {
      "inputs": [],
      "name": "MAX_ALLSTAR",
      "outputs": [
        {
          "internalType": "uint16",
          "name": "",
          "type": "uint16"
        }
      ],
      "stateMutability": "view",
      "type": "function"
    },
    {
      "inputs": [],
      "name": "MAX_WOOKS",
      "outputs": [
        {
          "internalType": "uint16",
          "name": "",
          "type": "uint16"
        }
      ],
      "stateMutability": "view",
      "type": "function"
    },
    {
      "inputs": [
        {
          "internalType": "address",
          "name": "spender",
          "type": "address"
        },
        {
          "internalType": "uint256",
          "name": "id",
          "type": "uint256"
        }
      ],
      "name": "approve",
      "outputs": [],
      "stateMutability": "nonpayable",
      "type": "function"
    },
    {
      "inputs": [
        {
          "internalType": "address",
          "name": "",
          "type": "address"
        }
      ],
      "name": "balanceOf",
      "outputs": [
        {
          "internalType": "uint256",
          "name": "",
          "type": "uint256"
        }
      ],
      "stateMutability": "view",
      "type": "function"
    },
    {
      "inputs": [],
      "name": "baseURI",
      "outputs": [
        {
          "internalType": "string",
          "name": "",
          "type": "string"
        }
      ],
      "stateMutability": "view",
      "type": "function"
    },
    {
      "inputs": [],
      "name": "currentTokenId",
      "outputs": [
        {
          "internalType": "uint16",
          "name": "",
          "type": "uint16"
        }
      ],
      "stateMutability": "view",
      "type": "function"
    },
    {
      "inputs": [],
      "name": "flipSaleState",
      "outputs": [],
      "stateMutability": "nonpayable",
      "type": "function"
    },
    {
      "inputs": [
        {
          "internalType": "uint256",
          "name": "",
          "type": "uint256"
        }
      ],
      "name": "getApproved",
      "outputs": [
        {
          "internalType": "address",
          "name": "",
          "type": "address"
        }
      ],
      "stateMutability": "view",
      "type": "function"
    },
    {
      "inputs": [
        {
          "internalType": "address",
          "name": "",
          "type": "address"
        },
        {
          "internalType": "address",
          "name": "",
          "type": "address"
        }
      ],
      "name": "isApprovedForAll",
      "outputs": [
        {
          "internalType": "bool",
          "name": "",
          "type": "bool"
        }
      ],
      "stateMutability": "view",
      "type": "function"
    },
    {
      "inputs": [],
      "name": "maxMintPerAddress",
      "outputs": [
        {
          "internalType": "uint8",
          "name": "",
          "type": "uint8"
        }
      ],
      "stateMutability": "view",
      "type": "function"
    },
    {
      "inputs": [
        {
          "internalType": "uint256",
          "name": "numberOfTokens",
          "type": "uint256"
        }
      ],
      "name": "mintWook",
      "outputs": [],
      "stateMutability": "payable",
      "type": "function"
    },
    {
      "inputs": [],
      "name": "name",
      "outputs": [
        {
          "internalType": "string",
          "name": "",
          "type": "string"
        }
      ],
      "stateMutability": "view",
      "type": "function"
    },
    {
      "inputs": [],
      "name": "owner",
      "outputs": [
        {
          "internalType": "address",
          "name": "",
          "type": "address"
        }
      ],
      "stateMutability": "view",
      "type": "function"
    },
    {
      "inputs": [
        {
          "internalType": "uint256",
          "name": "",
          "type": "uint256"
        }
      ],
      "name": "ownerOf",
      "outputs": [
        {
          "internalType": "address",
          "name": "",
          "type": "address"
        }
      ],
      "stateMutability": "view",
      "type": "function"
    },
    {
      "inputs": [],
      "name": "pause",
      "outputs": [],
      "stateMutability": "nonpayable",
      "type": "function"
    },
    {
      "inputs": [],
      "name": "paused",
      "outputs": [
        {
          "internalType": "bool",
          "name": "",
          "type": "bool"
        }
      ],
      "stateMutability": "view",
      "type": "function"
    },
    {
      "inputs": [],
      "name": "renounceOwnership",
      "outputs": [],
      "stateMutability": "nonpayable",
      "type": "function"
    },
    {
      "inputs": [],
      "name": "reserveWooks",
      "outputs": [],
      "stateMutability": "nonpayable",
      "type": "function"
    },
    {
      "inputs": [
        {
          "internalType": "string",
          "name": "_newBaseURI",
          "type": "string"
        }
      ],
      "name": "reveal",
      "outputs": [],
      "stateMutability": "nonpayable",
      "type": "function"
    },
    {
      "inputs": [],
      "name": "revealed",
      "outputs": [
        {
          "internalType": "bool",
          "name": "",
          "type": "bool"
        }
      ],
      "stateMutability": "view",
      "type": "function"
    },
    {
      "inputs": [
        {
          "internalType": "address",
          "name": "from",
          "type": "address"
        },
        {
          "internalType": "address",
          "name": "to",
          "type": "address"
        },
        {
          "internalType": "uint256",
          "name": "id",
          "type": "uint256"
        }
      ],
      "name": "safeTransferFrom",
      "outputs": [],
      "stateMutability": "nonpayable",
      "type": "function"
    },
    {
      "inputs": [
        {
          "internalType": "address",
          "name": "from",
          "type": "address"
        },
        {
          "internalType": "address",
          "name": "to",
          "type": "address"
        },
        {
          "internalType": "uint256",
          "name": "id",
          "type": "uint256"
        },
        {
          "internalType": "bytes",
          "name": "data",
          "type": "bytes"
        }
      ],
      "name": "safeTransferFrom",
      "outputs": [],
      "stateMutability": "nonpayable",
      "type": "function"
    },
    {
      "inputs": [],
      "name": "saleIsActive",
      "outputs": [
        {
          "internalType": "bool",
          "name": "",
          "type": "bool"
        }
      ],
      "stateMutability": "view",
      "type": "function"
    },
    {
      "inputs": [
        {
          "internalType": "address",
          "name": "operator",
          "type": "address"
        },
        {
          "internalType": "bool",
          "name": "approved",
          "type": "bool"
        }
      ],
      "name": "setApprovalForAll",
      "outputs": [],
      "stateMutability": "nonpayable",
      "type": "function"
    },
    {
      "inputs": [
        {
          "internalType": "bytes4",
          "name": "interfaceId",
          "type": "bytes4"
        }
      ],
      "name": "supportsInterface",
      "outputs": [
        {
          "internalType": "bool",
          "name": "",
          "type": "bool"
        }
      ],
      "stateMutability": "pure",
      "type": "function"
    },
    {
      "inputs": [],
      "name": "symbol",
      "outputs": [
        {
          "internalType": "string",
          "name": "",
          "type": "string"
        }
      ],
      "stateMutability": "view",
      "type": "function"
    },
    {
      "inputs": [
        {
          "internalType": "uint256",
          "name": "tokenId",
          "type": "uint256"
        }
      ],
      "name": "tokenURI",
      "outputs": [
        {
          "internalType": "string",
          "name": "",
          "type": "string"
        }
      ],
      "stateMutability": "view",
      "type": "function"
    },
    {
      "inputs": [
        {
          "internalType": "address",
          "name": "from",
          "type": "address"
        },
        {
          "internalType": "address",
          "name": "to",
          "type": "address"
        },
        {
          "internalType": "uint256",
          "name": "id",
          "type": "uint256"
        }
      ],
      "name": "transferFrom",
      "outputs": [],
      "stateMutability": "nonpayable",
      "type": "function"
    },
    {
      "inputs": [
        {
          "internalType": "address",
          "name": "newOwner",
          "type": "address"
        }
      ],
      "name": "transferOwnership",
      "outputs": [],
      "stateMutability": "nonpayable",
      "type": "function"
    },
    {
      "inputs": [],
      "name": "unpause",
      "outputs": [],
      "stateMutability": "nonpayable",
      "type": "function"
    },
    {
      "inputs": [
        {
          "internalType": "address payable",
          "name": "payee",
          "type": "address"
        }
      ],
      "name": "withdraw",
      "outputs": [],
      "stateMutability": "nonpayable",
      "type": "function"
    }
  ],
  "bytecode": "0x60806040526008805464ffff0000ff1916600a1790553480156200002257600080fd5b5060405162001f9138038062001f918339810160408190526200004591620001f9565b604080518082018252600a815269506978656c776f6f6b7360b01b602080830191825283518085019094526009845268706978656c776f6f6b60b81b90840152815191929162000098916000916200013d565b508051620000ae9060019060208401906200013d565b50506006805460ff1916905550620000c633620000e3565b8051620000db9060079060208401906200013d565b505062000312565b600680546001600160a01b03838116610100818102610100600160a81b031985161790945560405193909204169182907f8be0079c531659141344cd1fd0a4f28419497f9722a3daafe3b4186f6b6457e090600090a35050565b8280546200014b90620002d5565b90600052602060002090601f0160209004810192826200016f5760008555620001ba565b82601f106200018a57805160ff1916838001178555620001ba565b82800160010185558215620001ba579182015b82811115620001ba5782518255916020019190600101906200019d565b50620001c8929150620001cc565b5090565b5b80821115620001c85760008155600101620001cd565b634e487b7160e01b600052604160045260246000fd5b600060208083850312156200020d57600080fd5b82516001600160401b03808211156200022557600080fd5b818501915085601f8301126200023a57600080fd5b8151818111156200024f576200024f620001e3565b604051601f8201601f19908116603f011681019083821181831017156200027a576200027a620001e3565b8160405282815288868487010111156200029357600080fd5b600093505b82841015620002b7578484018601518185018701529285019262000298565b82841115620002c95760008684830101525b98975050505050505050565b600181811c90821680620002ea57607f821691505b602082108114156200030c57634e487b7160e01b600052602260045260246000fd5b50919050565b611c6f80620003226000396000f3fe6080604052600436106101675760003560e01c80629a9b7b1461016c57806301ffc9a7146101a457806306fdde03146101d4578063081812fc146101f6578063095ea7b31461023957806323b872dd1461025b57806332eee8381461027b57806334918dfd146102915780633f4ba83a146102a657806342842e0e146102bb5780634a924b9c146102db5780634c261247146102f05780634f5e76eb14610310578063518302271461032557806351cff8d914610346578063572849c4146103665780635c975abb146103925780636352211e146103aa5780636c0360eb146103e057806370a08231146103f5578063715018a6146104305780638456cb59146104455780638da5cb5b1461045a57806395d89b411461046f578063a22cb46514610484578063a67d9f14146104a4578063b88d4fde146104b7578063c87b56dd146104d7578063e985e9c5146104f7578063eb8d244414610532578063f2fde38b14610553575b600080fd5b34801561017857600080fd5b5060085461018c90610100900461ffff1681565b60405161ffff90911681526020015b60405180910390f35b3480156101b057600080fd5b506101c46101bf36600461155d565b610573565b604051901515815260200161019b565b3480156101e057600080fd5b506101e96105c5565b60405161019b91906115d9565b34801561020257600080fd5b5061022c6102113660046115ec565b6004602052600090815260409020546001600160a01b031681565b60405161019b9190611605565b34801561024557600080fd5b5061025961025436600461162e565b610653565b005b34801561026757600080fd5b5061025961027636600461165a565b61071d565b34801561028757600080fd5b5061018c61138881565b34801561029d57600080fd5b5061025961088d565b3480156102b257600080fd5b506102596108dd565b3480156102c757600080fd5b506102596102d636600461165a565b610916565b3480156102e757600080fd5b5061018c603281565b3480156102fc57600080fd5b5061025961030b366004611726565b6109d5565b34801561031c57600080fd5b50610259610a2e565b34801561033157600080fd5b506008546101c490600160201b900460ff1681565b34801561035257600080fd5b5061025961036136600461176e565b610b52565b34801561037257600080fd5b506008546103809060ff1681565b60405160ff909116815260200161019b565b34801561039e57600080fd5b5060065460ff166101c4565b3480156103b657600080fd5b5061022c6103c53660046115ec565b6003602052600090815260409020546001600160a01b031681565b3480156103ec57600080fd5b506101e9610bf5565b34801561040157600080fd5b5061042261041036600461176e565b60026020526000908152604090205481565b60405190815260200161019b565b34801561043c57600080fd5b50610259610c02565b34801561045157600080fd5b50610259610c3b565b34801561046657600080fd5b5061022c610c72565b34801561047b57600080fd5b506101e9610c86565b34801561049057600080fd5b5061025961049f36600461178b565b610c93565b6102596104b23660046115ec565b610cff565b3480156104c357600080fd5b506102596104d23660046117c9565b610e45565b3480156104e357600080fd5b506101e96104f23660046115ec565b610f07565b34801561050357600080fd5b506101c4610512366004611848565b600560209081526000928352604080842090915290825290205460ff1681565b34801561053e57600080fd5b506008546101c4906301000000900460ff1681565b34801561055f57600080fd5b5061025961056e36600461176e565b61103e565b60006301ffc9a760e01b6001600160e01b0319831614806105a457506380ac58cd60e01b6001600160e01b03198316145b806105bf5750635b5e139f60e01b6001600160e01b03198316145b92915050565b600080546105d290611876565b80601f01602080910402602001604051908101604052809291908181526020018280546105fe90611876565b801561064b5780601f106106205761010080835404028352916020019161064b565b820191906000526020600020905b81548152906001019060200180831161062e57829003601f168201915b505050505081565b6000818152600360205260409020546001600160a01b03163381148061069c57506001600160a01b038116600090815260056020908152604080832033845290915290205460ff165b6106c15760405162461bcd60e51b81526004016106b8906118b1565b60405180910390fd5b60008281526004602052604080822080546001600160a01b0319166001600160a01b0387811691821790925591518593918516917f8c5be1e5ebec7d5bd14f71427d1e84f3dd0314c0f7b2291e5b200ac8c7c3b92591a4505050565b6000818152600360205260409020546001600160a01b038481169116146107735760405162461bcd60e51b815260206004820152600a60248201526957524f4e475f46524f4d60b01b60448201526064016106b8565b6001600160a01b0382166107995760405162461bcd60e51b81526004016106b8906118d9565b336001600160a01b03841614806107c657506000818152600460205260409020546001600160a01b031633145b806107f457506001600160a01b038316600090815260056020908152604080832033845290915290205460ff165b6108105760405162461bcd60e51b81526004016106b8906118b1565b6001600160a01b0380841660008181526002602090815260408083208054600019019055938616808352848320805460010190558583526003825284832080546001600160a01b0319908116831790915560049092528483208054909216909155925184939291600080516020611bfa83398151915291a4505050565b33610896610c72565b6001600160a01b0316146108bc5760405162461bcd60e51b81526004016106b890611904565b6008805463ff00000019811663010000009182900460ff1615909102179055565b336108e6610c72565b6001600160a01b03161461090c5760405162461bcd60e51b81526004016106b890611904565b6109146110db565b565b61092183838361071d565b6001600160a01b0382163b15806109b45750604051630a85bd0160e11b808252906001600160a01b0384169063150b7a029061096590339088908790600401611939565b6020604051808303816000875af1158015610984573d6000803e3d6000fd5b505050506040513d601f19601f820116820180604052508101906109a8919061196c565b6001600160e01b031916145b6109d05760405162461bcd60e51b81526004016106b890611989565b505050565b336109de610c72565b6001600160a01b031614610a045760405162461bcd60e51b81526004016106b890611904565b6008805460ff60201b1916600160201b1790558051610a2a9060079060208401906114ae565b5050565b33610a37610c72565b6001600160a01b031614610a5d5760405162461bcd60e51b81526004016106b890611904565b60005b60648160ff161015610adf5760006008600181819054906101000a900461ffff16610a8a906119c9565b91906101000a81548161ffff021916908361ffff160217905561ffff169050610ab33382611168565b6040518190600080516020611c1a83398151915290600090a25080610ad7816119eb565b915050610a60565b506113885b610af16032611388611a0b565b61ffff168161ffff161015610b4f57610b0e338261ffff16611168565b60405161ffff8216907f378f62621daf723429a1d4ac363faa82c55513ec6c0f8f621c1bbe407619f74590600090a280610b47816119c9565b915050610ae4565b50565b33610b5b610c72565b6001600160a01b031614610b815760405162461bcd60e51b81526004016106b890611904565b60405147906000906001600160a01b0384169083908381818185875af1925050503d8060008114610bce576040519150601f19603f3d011682016040523d82523d6000602084013e610bd3565b606091505b50509050806109d05760405163d23a9e8960e01b815260040160405180910390fd5b600780546105d290611876565b33610c0b610c72565b6001600160a01b031614610c315760405162461bcd60e51b81526004016106b890611904565b6109146000611222565b33610c44610c72565b6001600160a01b031614610c6a5760405162461bcd60e51b81526004016106b890611904565b61091461127c565b60065461010090046001600160a01b031690565b600180546105d290611876565b3360008181526005602090815260408083206001600160a01b03871680855290835292819020805460ff191686151590811790915590519081529192917f17307eab39ab6107e8899845ad3d59bd9653f200f220920489ca2b5937696c31910160405180910390a35050565b60065460ff1615610d225760405162461bcd60e51b81526004016106b890611a31565b6008546301000000900460ff16610d4c57604051634065aaf160e11b815260040160405180910390fd5b60085461138890610d6690610100900461ffff1683611a5b565b1115610d8557604051632cdb04a160e21b815260040160405180910390fd5b6008543360009081526002602052604090205460ff90911690610da89083611a5b565b1115610dc757604051634a7ba1cb60e11b815260040160405180910390fd5b60005b81811015610a2a5760006008600181819054906101000a900461ffff16610df0906119c9565b91906101000a81548161ffff021916908361ffff160217905561ffff169050610e193382611168565b6040518190600080516020611c1a83398151915290600090a25080610e3d81611a73565b915050610dca565b610e5084848461071d565b6001600160a01b0383163b1580610ee55750604051630a85bd0160e11b808252906001600160a01b0385169063150b7a0290610e96903390899088908890600401611a8e565b6020604051808303816000875af1158015610eb5573d6000803e3d6000fd5b505050506040513d601f19601f82011682018060405250810190610ed9919061196c565b6001600160e01b031916145b610f015760405162461bcd60e51b81526004016106b890611989565b50505050565b6000818152600360205260409020546060906001600160a01b0316610f3f5760405163d872946b60e01b815260040160405180910390fd5b600854600160201b900460ff16610fe25760078054610f5d90611876565b80601f0160208091040260200160405190810160405280929190818152602001828054610f8990611876565b8015610fd65780601f10610fab57610100808354040283529160200191610fd6565b820191906000526020600020905b815481529060010190602001808311610fb957829003601f168201915b50505050509050919050565b600060078054610ff190611876565b90501161100d57604051806020016040528060008152506105bf565b6007611018836112d4565b604051602001611029929190611ae7565b60405160208183030381529060405292915050565b33611047610c72565b6001600160a01b03161461106d5760405162461bcd60e51b81526004016106b890611904565b6001600160a01b0381166110d25760405162461bcd60e51b815260206004820152602660248201527f4f776e61626c653a206e6577206f776e657220697320746865207a65726f206160448201526564647265737360d01b60648201526084016106b8565b610b4f81611222565b60065460ff166111245760405162461bcd60e51b815260206004820152601460248201527314185d5cd8589b194e881b9bdd081c185d5cd95960621b60448201526064016106b8565b6006805460ff191690557f5db9ee0a495bf2e6ff9c91a7834c1ba4fdd244a5e8aa4e537bd38aeae4b073aa335b60405161115e9190611605565b60405180910390a1565b61117282826113d9565b6001600160a01b0382163b15806112065750604051630a85bd0160e11b808252906001600160a01b0384169063150b7a02906111b79033906000908790600401611939565b6020604051808303816000875af11580156111d6573d6000803e3d6000fd5b505050506040513d601f19601f820116820180604052508101906111fa919061196c565b6001600160e01b031916145b610a2a5760405162461bcd60e51b81526004016106b890611989565b600680546001600160a01b03838116610100818102610100600160a81b031985161790945560405193909204169182907f8be0079c531659141344cd1fd0a4f28419497f9722a3daafe3b4186f6b6457e090600090a35050565b60065460ff161561129f5760405162461bcd60e51b81526004016106b890611a31565b6006805460ff191660011790557f62e78cea01bee320cd4e420270b5ea74000d11b0c9f74754ebdbfc544b05a2586111513390565b6060816112f85750506040805180820190915260018152600360fc1b602082015290565b8160005b8115611322578061130c81611a73565b915061131b9050600a83611ba4565b91506112fc565b6000816001600160401b0381111561133c5761133c61169b565b6040519080825280601f01601f191660200182016040528015611366576020820181803683370190505b5090505b84156113d15761137b600183611bb8565b9150611388600a86611bcf565b611393906030611a5b565b60f81b8183815181106113a8576113a8611be3565b60200101906001600160f81b031916908160001a9053506113ca600a86611ba4565b945061136a565b949350505050565b6001600160a01b0382166113ff5760405162461bcd60e51b81526004016106b8906118d9565b6000818152600360205260409020546001600160a01b0316156114555760405162461bcd60e51b815260206004820152600e60248201526d1053149150511657d3525395115160921b60448201526064016106b8565b6001600160a01b038216600081815260026020908152604080832080546001019055848352600390915280822080546001600160a01b031916841790555183929190600080516020611bfa833981519152908290a45050565b8280546114ba90611876565b90600052602060002090601f0160209004810192826114dc5760008555611522565b82601f106114f557805160ff1916838001178555611522565b82800160010185558215611522579182015b82811115611522578251825591602001919060010190611507565b5061152e929150611532565b5090565b5b8082111561152e5760008155600101611533565b6001600160e01b031981168114610b4f57600080fd5b60006020828403121561156f57600080fd5b813561157a81611547565b9392505050565b60005b8381101561159c578181015183820152602001611584565b83811115610f015750506000910152565b600081518084526115c5816020860160208601611581565b601f01601f19169290920160200192915050565b60208152600061157a60208301846115ad565b6000602082840312156115fe57600080fd5b5035919050565b6001600160a01b0391909116815260200190565b6001600160a01b0381168114610b4f57600080fd5b6000806040838503121561164157600080fd5b823561164c81611619565b946020939093013593505050565b60008060006060848603121561166f57600080fd5b833561167a81611619565b9250602084013561168a81611619565b929592945050506040919091013590565b634e487b7160e01b600052604160045260246000fd5b60006001600160401b03808411156116cb576116cb61169b565b604051601f8501601f19908116603f011681019082821181831017156116f3576116f361169b565b8160405280935085815286868601111561170c57600080fd5b858560208301376000602087830101525050509392505050565b60006020828403121561173857600080fd5b81356001600160401b0381111561174e57600080fd5b8201601f8101841361175f57600080fd5b6113d1848235602084016116b1565b60006020828403121561178057600080fd5b813561157a81611619565b6000806040838503121561179e57600080fd5b82356117a981611619565b9150602083013580151581146117be57600080fd5b809150509250929050565b600080600080608085870312156117df57600080fd5b84356117ea81611619565b935060208501356117fa81611619565b92506040850135915060608501356001600160401b0381111561181c57600080fd5b8501601f8101871361182d57600080fd5b61183c878235602084016116b1565b91505092959194509250565b6000806040838503121561185b57600080fd5b823561186681611619565b915060208301356117be81611619565b600181811c9082168061188a57607f821691505b602082108114156118ab57634e487b7160e01b600052602260045260246000fd5b50919050565b6020808252600e908201526d1393d517d055551213d49256915160921b604082015260600190565b6020808252601190820152701253959053125117d49150d25412515395607a1b604082015260600190565b6020808252818101527f4f776e61626c653a2063616c6c6572206973206e6f7420746865206f776e6572604082015260600190565b6001600160a01b039384168152919092166020820152604081019190915260806060820181905260009082015260a00190565b60006020828403121561197e57600080fd5b815161157a81611547565b60208082526010908201526f155394d0519157d49150d2541251539560821b604082015260600190565b634e487b7160e01b600052601160045260246000fd5b600061ffff808316818114156119e1576119e16119b3565b6001019392505050565b600060ff821660ff811415611a0257611a026119b3565b60010192915050565b600061ffff808316818516808303821115611a2857611a286119b3565b01949350505050565b60208082526010908201526f14185d5cd8589b194e881c185d5cd95960821b604082015260600190565b60008219821115611a6e57611a6e6119b3565b500190565b6000600019821415611a8757611a876119b3565b5060010190565b6001600160a01b0385811682528416602082015260408101839052608060608201819052600090611ac1908301846115ad565b9695505050505050565b60008151611add818560208601611581565b9290920192915050565b600080845481600182811c915080831680611b0357607f831692505b6020808410821415611b2357634e487b7160e01b86526022600452602486fd5b818015611b375760018114611b4857611b75565b60ff19861689528489019650611b75565b60008b81526020902060005b86811015611b6d5781548b820152908501908301611b54565b505084890196505b505050505050611b858185611acb565b95945050505050565b634e487b7160e01b600052601260045260246000fd5b600082611bb357611bb3611b8e565b500490565b600082821015611bca57611bca6119b3565b500390565b600082611bde57611bde611b8e565b500690565b634e487b7160e01b600052603260045260246000fdfeddf252ad1be2c89b69c2b068fc378daa952ba7f163c4a11628f55a4df523b3ef176b02bb2d12439ff7a20b59f402cca16c76f50508b13ef3166a600eb719354aa2646970667358221220713412faf65c7bc1b7233319f8ff0651fe1e4582318446f8b8b42fc127760ee064736f6c634300080a0033",
  "linkReferences": {},
  "deployedLinkReferences": {}
}