{
  "_format": "hh-sol-artifact-1",
  "contractName": "CelebPixelWooks",
  "sourceName": "contracts/celebwooks.sol",
  "abi": [
    {
      "inputs": [
        {
          "internalType": "string",
          "name": "_baseURI",
          "type": "string"
        },
        {
          "internalType": "address[]",
          "name": "_reservedAddresses",
          "type": "address[]"
        },
        {
          "internalType": "uint8[]",
          "name": "_reservedIndexes",
          "type": "uint8[]"
        },
        {
          "internalType": "address[]",
          "name": "_freeAddresses",
          "type": "address[]"
        },
        {
          "internalType": "uint8[]",
          "name": "_freeIndexes",
          "type": "uint8[]"
        },
        {
          "internalType": "uint8[]",
          "name": "_tierIndexes",
          "type": "uint8[]"
        }
      ],
      "stateMutability": "nonpayable",
      "type": "constructor"
    },
    {
      "anonymous": false,
      "inputs": [
        {
          "indexed": true,
          "internalType": "address",
          "name": "owner",
          "type": "address"
        },
        {
          "indexed": true,
          "internalType": "address",
          "name": "spender",
          "type": "address"
        },
        {
          "indexed": true,
          "internalType": "uint256",
          "name": "id",
          "type": "uint256"
        }
      ],
      "name": "Approval",
      "type": "event"
    },
    {
      "anonymous": false,
      "inputs": [
        {
          "indexed": true,
          "internalType": "address",
          "name": "owner",
          "type": "address"
        },
        {
          "indexed": true,
          "internalType": "address",
          "name": "operator",
          "type": "address"
        },
        {
          "indexed": false,
          "internalType": "bool",
          "name": "approved",
          "type": "bool"
        }
      ],
      "name": "ApprovalForAll",
      "type": "event"
    },
    {
      "anonymous": false,
      "inputs": [
        {
          "indexed": true,
          "internalType": "address",
          "name": "_from",
          "type": "address"
        },
        {
          "indexed": true,
          "internalType": "uint256",
          "name": "_id",
          "type": "uint256"
        }
      ],
      "name": "CelebMinted",
      "type": "event"
    },
    {
      "anonymous": false,
      "inputs": [
        {
          "indexed": true,
          "internalType": "address",
          "name": "previousOwner",
          "type": "address"
        },
        {
          "indexed": true,
          "internalType": "address",
          "name": "newOwner",
          "type": "address"
        }
      ],
      "name": "OwnershipTransferred",
      "type": "event"
    },
    {
      "anonymous": false,
      "inputs": [
        {
          "indexed": false,
          "internalType": "address",
          "name": "account",
          "type": "address"
        }
      ],
      "name": "Paused",
      "type": "event"
    },
    {
      "anonymous": false,
      "inputs": [
        {
          "indexed": true,
          "internalType": "address",
          "name": "from",
          "type": "address"
        },
        {
          "indexed": true,
          "internalType": "address",
          "name": "to",
          "type": "address"
        },
        {
          "indexed": true,
          "internalType": "uint256",
          "name": "id",
          "type": "uint256"
        }
      ],
      "name": "Transfer",
      "type": "event"
    },
    {
      "anonymous": false,
      "inputs": [
        {
          "indexed": false,
          "internalType": "address",
          "name": "account",
          "type": "address"
        }
      ],
      "name": "Unpaused",
      "type": "event"
    },
    {
      "inputs": [],
      "name": "MAX_CELEBS",
      "outputs": [
        {
          "internalType": "uint16",
          "name": "",
          "type": "uint16"
        }
      ],
      "stateMutability": "view",
      "type": "function"
    },
    {
      "inputs": [
        {
          "internalType": "address",
          "name": "spender",
          "type": "address"
        },
        {
          "internalType": "uint256",
          "name": "id",
          "type": "uint256"
        }
      ],
      "name": "approve",
      "outputs": [],
      "stateMutability": "nonpayable",
      "type": "function"
    },
    {
      "inputs": [
        {
          "internalType": "address",
          "name": "owner",
          "type": "address"
        }
      ],
      "name": "balanceOf",
      "outputs": [
        {
          "internalType": "uint256",
          "name": "",
          "type": "uint256"
        }
      ],
      "stateMutability": "view",
      "type": "function"
    },
    {
      "inputs": [],
      "name": "baseURI",
      "outputs": [
        {
          "internalType": "string",
          "name": "",
          "type": "string"
        }
      ],
      "stateMutability": "view",
      "type": "function"
    },
    {
      "inputs": [],
      "name": "flipSaleState",
      "outputs": [],
      "stateMutability": "nonpayable",
      "type": "function"
    },
    {
      "inputs": [
        {
          "internalType": "uint256",
          "name": "",
          "type": "uint256"
        }
      ],
      "name": "freeCelebs",
      "outputs": [
        {
          "internalType": "address",
          "name": "",
          "type": "address"
        }
      ],
      "stateMutability": "view",
      "type": "function"
    },
    {
      "inputs": [
        {
          "internalType": "uint256",
          "name": "",
          "type": "uint256"
        }
      ],
      "name": "freeIndexes",
      "outputs": [
        {
          "internalType": "uint256",
          "name": "",
          "type": "uint256"
        }
      ],
      "stateMutability": "view",
      "type": "function"
    },
    {
      "inputs": [
        {
          "internalType": "uint256",
          "name": "",
          "type": "uint256"
        }
      ],
      "name": "getApproved",
      "outputs": [
        {
          "internalType": "address",
          "name": "",
          "type": "address"
        }
      ],
      "stateMutability": "view",
      "type": "function"
    },
    {
      "inputs": [],
      "name": "getFreeIndexes",
      "outputs": [
        {
          "internalType": "uint256[]",
          "name": "",
          "type": "uint256[]"
        }
      ],
      "stateMutability": "nonpayable",
      "type": "function"
    },
    {
      "inputs": [],
      "name": "getReservedIndexes",
      "outputs": [
        {
          "internalType": "uint256[]",
          "name": "",
          "type": "uint256[]"
        }
      ],
      "stateMutability": "nonpayable",
      "type": "function"
    },
    {
      "inputs": [],
      "name": "getSoldIndexes",
      "outputs": [
        {
          "internalType": "uint256[]",
          "name": "",
          "type": "uint256[]"
        }
      ],
      "stateMutability": "view",
      "type": "function"
    },
    {
      "inputs": [
        {
          "internalType": "address",
          "name": "",
          "type": "address"
        },
        {
          "internalType": "address",
          "name": "",
          "type": "address"
        }
      ],
      "name": "isApprovedForAll",
      "outputs": [
        {
          "internalType": "bool",
          "name": "",
          "type": "bool"
        }
      ],
      "stateMutability": "view",
      "type": "function"
    },
    {
      "inputs": [
        {
          "internalType": "uint256",
          "name": "celebIndex",
          "type": "uint256"
        }
      ],
      "name": "mintCelebWook",
      "outputs": [],
      "stateMutability": "payable",
      "type": "function"
    },
    {
      "inputs": [],
      "name": "name",
      "outputs": [
        {
          "internalType": "string",
          "name": "",
          "type": "string"
        }
      ],
      "stateMutability": "view",
      "type": "function"
    },
    {
      "inputs": [
        {
          "internalType": "string",
          "name": "_newBaseURI",
          "type": "string"
        }
      ],
      "name": "newURI",
      "outputs": [],
      "stateMutability": "nonpayable",
      "type": "function"
    },
    {
      "inputs": [],
      "name": "numSold",
      "outputs": [
        {
          "internalType": "uint16",
          "name": "",
          "type": "uint16"
        }
      ],
      "stateMutability": "view",
      "type": "function"
    },
    {
      "inputs": [],
      "name": "owner",
      "outputs": [
        {
          "internalType": "address",
          "name": "",
          "type": "address"
        }
      ],
      "stateMutability": "view",
      "type": "function"
    },
    {
      "inputs": [
        {
          "internalType": "uint256",
          "name": "id",
          "type": "uint256"
        }
      ],
      "name": "ownerOf",
      "outputs": [
        {
          "internalType": "address",
          "name": "owner",
          "type": "address"
        }
      ],
      "stateMutability": "view",
      "type": "function"
    },
    {
      "inputs": [],
      "name": "pause",
      "outputs": [],
      "stateMutability": "nonpayable",
      "type": "function"
    },
    {
      "inputs": [],
      "name": "paused",
      "outputs": [
        {
          "internalType": "bool",
          "name": "",
          "type": "bool"
        }
      ],
      "stateMutability": "view",
      "type": "function"
    },
    {
      "inputs": [],
      "name": "renounceOwnership",
      "outputs": [],
      "stateMutability": "nonpayable",
      "type": "function"
    },
    {
      "inputs": [
        {
          "internalType": "uint256",
          "name": "",
          "type": "uint256"
        }
      ],
      "name": "reservedCelebs",
      "outputs": [
        {
          "internalType": "address",
          "name": "",
          "type": "address"
        }
      ],
      "stateMutability": "view",
      "type": "function"
    },
    {
      "inputs": [
        {
          "internalType": "uint256",
          "name": "",
          "type": "uint256"
        }
      ],
      "name": "reservedIndexes",
      "outputs": [
        {
          "internalType": "uint256",
          "name": "",
          "type": "uint256"
        }
      ],
      "stateMutability": "view",
      "type": "function"
    },
    {
      "inputs": [
        {
          "internalType": "address",
          "name": "from",
          "type": "address"
        },
        {
          "internalType": "address",
          "name": "to",
          "type": "address"
        },
        {
          "internalType": "uint256",
          "name": "id",
          "type": "uint256"
        }
      ],
      "name": "safeTransferFrom",
      "outputs": [],
      "stateMutability": "nonpayable",
      "type": "function"
    },
    {
      "inputs": [
        {
          "internalType": "address",
          "name": "from",
          "type": "address"
        },
        {
          "internalType": "address",
          "name": "to",
          "type": "address"
        },
        {
          "internalType": "uint256",
          "name": "id",
          "type": "uint256"
        },
        {
          "internalType": "bytes",
          "name": "data",
          "type": "bytes"
        }
      ],
      "name": "safeTransferFrom",
      "outputs": [],
      "stateMutability": "nonpayable",
      "type": "function"
    },
    {
      "inputs": [],
      "name": "saleIsActive",
      "outputs": [
        {
          "internalType": "bool",
          "name": "",
          "type": "bool"
        }
      ],
      "stateMutability": "view",
      "type": "function"
    },
    {
      "inputs": [
        {
          "internalType": "address",
          "name": "operator",
          "type": "address"
        },
        {
          "internalType": "bool",
          "name": "approved",
          "type": "bool"
        }
      ],
      "name": "setApprovalForAll",
      "outputs": [],
      "stateMutability": "nonpayable",
      "type": "function"
    },
    {
      "inputs": [
        {
          "internalType": "uint256",
          "name": "",
          "type": "uint256"
        }
      ],
      "name": "soldCelebs",
      "outputs": [
        {
          "internalType": "address",
          "name": "",
          "type": "address"
        }
      ],
      "stateMutability": "view",
      "type": "function"
    },
    {
      "inputs": [
        {
          "internalType": "uint256",
          "name": "",
          "type": "uint256"
        }
      ],
      "name": "soldIndexes",
      "outputs": [
        {
          "internalType": "uint256",
          "name": "",
          "type": "uint256"
        }
      ],
      "stateMutability": "view",
      "type": "function"
    },
    {
      "inputs": [
        {
          "internalType": "bytes4",
          "name": "interfaceId",
          "type": "bytes4"
        }
      ],
      "name": "supportsInterface",
      "outputs": [
        {
          "internalType": "bool",
          "name": "",
          "type": "bool"
        }
      ],
      "stateMutability": "view",
      "type": "function"
    },
    {
      "inputs": [],
      "name": "symbol",
      "outputs": [
        {
          "internalType": "string",
          "name": "",
          "type": "string"
        }
      ],
      "stateMutability": "view",
      "type": "function"
    },
    {
      "inputs": [
        {
          "internalType": "uint256",
          "name": "",
          "type": "uint256"
        }
      ],
      "name": "tierIndexes",
      "outputs": [
        {
          "internalType": "uint256",
          "name": "",
          "type": "uint256"
        }
      ],
      "stateMutability": "view",
      "type": "function"
    },
    {
      "inputs": [],
      "name": "tierOnePrice",
      "outputs": [
        {
          "internalType": "uint256",
          "name": "",
          "type": "uint256"
        }
      ],
      "stateMutability": "view",
      "type": "function"
    },
    {
      "inputs": [],
      "name": "tierTwoPrice",
      "outputs": [
        {
          "internalType": "uint256",
          "name": "",
          "type": "uint256"
        }
      ],
      "stateMutability": "view",
      "type": "function"
    },
    {
      "inputs": [
        {
          "internalType": "uint256",
          "name": "tokenId",
          "type": "uint256"
        }
      ],
      "name": "tokenURI",
      "outputs": [
        {
          "internalType": "string",
          "name": "",
          "type": "string"
        }
      ],
      "stateMutability": "view",
      "type": "function"
    },
    {
      "inputs": [
        {
          "internalType": "address",
          "name": "from",
          "type": "address"
        },
        {
          "internalType": "address",
          "name": "to",
          "type": "address"
        },
        {
          "internalType": "uint256",
          "name": "id",
          "type": "uint256"
        }
      ],
      "name": "transferFrom",
      "outputs": [],
      "stateMutability": "nonpayable",
      "type": "function"
    },
    {
      "inputs": [
        {
          "internalType": "address",
          "name": "newOwner",
          "type": "address"
        }
      ],
      "name": "transferOwnership",
      "outputs": [],
      "stateMutability": "nonpayable",
      "type": "function"
    },
    {
      "inputs": [
        {
          "internalType": "uint256",
          "name": "celebIndex",
          "type": "uint256"
        }
      ],
      "name": "unFree",
      "outputs": [],
      "stateMutability": "nonpayable",
      "type": "function"
    },
    {
      "inputs": [
        {
          "internalType": "uint256",
          "name": "celebIndex",
          "type": "uint256"
        }
      ],
      "name": "unReserve",
      "outputs": [],
      "stateMutability": "nonpayable",
      "type": "function"
    },
    {
      "inputs": [],
      "name": "unpause",
      "outputs": [],
      "stateMutability": "nonpayable",
      "type": "function"
    },
    {
      "inputs": [
        {
          "internalType": "address payable",
          "name": "payee",
          "type": "address"
        }
      ],
      "name": "withdraw",
      "outputs": [],
      "stateMutability": "nonpayable",
      "type": "function"
    }
  ],
  "bytecode": "0x60806040526010805460ff191690553480156200001b57600080fd5b5060405162002872380380620028728339810160408190526200003e9162000590565b604080518082018252600f81526e43656c6562506978656c776f6f6b7360881b60208083019182528351808501909452600e84526d63656c6562506978656c776f6f6b60901b9084015281519192916200009b91600091620002e9565b508051620000b1906001906020840190620002e9565b50506006805460ff1916905550620000c9336200028f565b8551620000de906007906020890190620002e9565b5060005b85518160ff1610156200017e57858160ff168151811062000107576200010762000697565b6020026020010151600a6000878460ff16815181106200012b576200012b62000697565b602002602001015160ff16815260200190815260200160002060006101000a8154816001600160a01b0302191690836001600160a01b0316021790555080806200017590620006ad565b915050620000e2565b5060005b83518160ff1610156200021e57838160ff1681518110620001a757620001a762000697565b6020026020010151600b6000858460ff1681518110620001cb57620001cb62000697565b602002602001015160ff16815260200190815260200160002060006101000a8154816001600160a01b0302191690836001600160a01b0316021790555080806200021590620006ad565b91505062000182565b5060005b81518160ff1610156200028257818160ff168151811062000247576200024762000697565b602002602001015160ff16600c60008360ff1681526020019081526020016000208190555080806200027990620006ad565b91505062000222565b5050505050505062000719565b600680546001600160a01b03838116610100818102610100600160a81b031985161790945560405193909204169182907f8be0079c531659141344cd1fd0a4f28419497f9722a3daafe3b4186f6b6457e090600090a35050565b828054620002f790620006dc565b90600052602060002090601f0160209004810192826200031b576000855562000366565b82601f106200033657805160ff191683800117855562000366565b8280016001018555821562000366579182015b828111156200036657825182559160200191906001019062000349565b506200037492915062000378565b5090565b5b8082111562000374576000815560010162000379565b634e487b7160e01b600052604160045260246000fd5b604051601f8201601f191681016001600160401b0381118282101715620003d057620003d06200038f565b604052919050565b600082601f830112620003ea57600080fd5b81516001600160401b038111156200040657620004066200038f565b60206200041c601f8301601f19168201620003a5565b82815285828487010111156200043157600080fd5b60005b838110156200045157858101830151828201840152820162000434565b83811115620004635760008385840101525b5095945050505050565b60006001600160401b038211156200048957620004896200038f565b5060051b60200190565b600082601f830112620004a557600080fd5b81516020620004be620004b8836200046d565b620003a5565b82815260059290921b84018101918181019086841115620004de57600080fd5b8286015b84811015620005125780516001600160a01b0381168114620005045760008081fd5b8352918301918301620004e2565b509695505050505050565b600082601f8301126200052f57600080fd5b8151602062000542620004b8836200046d565b82815260059290921b840181019181810190868411156200056257600080fd5b8286015b848110156200051257805160ff81168114620005825760008081fd5b835291830191830162000566565b60008060008060008060c08789031215620005aa57600080fd5b86516001600160401b0380821115620005c257600080fd5b620005d08a838b01620003d8565b97506020890151915080821115620005e757600080fd5b620005f58a838b0162000493565b965060408901519150808211156200060c57600080fd5b6200061a8a838b016200051d565b955060608901519150808211156200063157600080fd5b6200063f8a838b0162000493565b945060808901519150808211156200065657600080fd5b620006648a838b016200051d565b935060a08901519150808211156200067b57600080fd5b506200068a89828a016200051d565b9150509295509295509295565b634e487b7160e01b600052603260045260246000fd5b600060ff821660ff811415620006d357634e487b7160e01b600052601160045260246000fd5b60010192915050565b600181811c90821680620006f157607f821691505b602082108114156200071357634e487b7160e01b600052602260045260246000fd5b50919050565b61214980620007296000396000f3fe6080604052600436106101d65760003560e01c806301ffc9a7146101db57806306fdde0314610210578063081812fc1461023257806308cab93714610275578063095ea7b31461029d57806317c988a0146102bf5780631821570e146102df57806323b872dd1461030d5780632b1762001461032d57806334918dfd146103635780633f4ba83a1461037857806342842e0e1461038d5780634424aa3d146103ad5780634441b895146103e357806351cff8d9146104055780635c975abb146104255780636352211e1461043d5780636c0360eb1461045d57806370a08231146104725780637146901e14610492578063715018a6146104b2578063789dad52146104c75780637c56c329146104dc5780637c766eaa146104f15780638456cb59146105045780638600c8b2146105195780638bfe85eb146105345780638da5cb5b1461056157806395d89b4114610576578063a22cb4651461058b578063a66ca81b146105ab578063a73b4ede146105cb578063b88d4fde14610601578063c87b56dd14610621578063d7e915d514610641578063e985e9c51461065c578063eb8d244414610697578063f2bf1096146106b1578063f2fde38b146106d1578063f309455a146106f1578063fd7cfa0d1461070c575b600080fd5b3480156101e757600080fd5b506101fb6101f6366004611a4b565b61072c565b60405190151581526020015b60405180910390f35b34801561021c57600080fd5b5061022561077e565b6040516102079190611a9f565b34801561023e57600080fd5b5061026861024d366004611ad2565b6004602052600090815260409020546001600160a01b031681565b6040516102079190611aeb565b34801561028157600080fd5b5061028a609681565b60405161ffff9091168152602001610207565b3480156102a957600080fd5b506102bd6102b8366004611b14565b61080c565b005b3480156102cb57600080fd5b506102bd6102da366004611ad2565b6108d6565b3480156102eb57600080fd5b506102ff6102fa366004611ad2565b6108fc565b604051908152602001610207565b34801561031957600080fd5b506102bd610328366004611b40565b61091d565b34801561033957600080fd5b50610268610348366004611ad2565b600b602052600090815260409020546001600160a01b031681565b34801561036f57600080fd5b506102bd610a8d565b34801561038457600080fd5b506102bd610aa9565b34801561039957600080fd5b506102bd6103a8366004611b40565b610abb565b3480156103b957600080fd5b506102686103c8366004611ad2565b600a602052600090815260409020546001600160a01b031681565b3480156103ef57600080fd5b506103f8610b7a565b6040516102079190611b81565b34801561041157600080fd5b506102bd610420366004611bc5565b610c69565b34801561043157600080fd5b5060065460ff166101fb565b34801561044957600080fd5b50610268610458366004611ad2565b610d07565b34801561046957600080fd5b50610225610d5e565b34801561047e57600080fd5b506102ff61048d366004611bc5565b610d6b565b34801561049e57600080fd5b506102ff6104ad366004611ad2565b610dce565b3480156104be57600080fd5b506102bd610dde565b3480156104d357600080fd5b506103f8610df0565b3480156104e857600080fd5b506103f8610edd565b6102bd6104ff366004611ad2565b610f33565b34801561051057600080fd5b506102bd611251565b34801561052557600080fd5b506102ff66354a6ba7a1800081565b34801561054057600080fd5b506102ff61054f366004611ad2565b600c6020526000908152604090205481565b34801561056d57600080fd5b50610268611261565b34801561058257600080fd5b50610225611275565b34801561059757600080fd5b506102bd6105a6366004611be2565b611282565b3480156105b757600080fd5b506102bd6105c6366004611ad2565b6112ee565b3480156105d757600080fd5b506102686105e6366004611ad2565b6009602052600090815260409020546001600160a01b031681565b34801561060d57600080fd5b506102bd61061c366004611c20565b611314565b34801561062d57600080fd5b5061022561063c366004611ad2565b6113d9565b34801561064d57600080fd5b506102ff666a94d74f43000081565b34801561066857600080fd5b506101fb610677366004611cbe565b600560209081526000928352604080842090915290825290205460ff1681565b3480156106a357600080fd5b506010546101fb9060ff1681565b3480156106bd57600080fd5b506102bd6106cc366004611d02565b61148f565b3480156106dd57600080fd5b506102bd6106ec366004611bc5565b6114ae565b3480156106fd57600080fd5b5060085461028a9061ffff1681565b34801561071857600080fd5b506102ff610727366004611ad2565b611527565b60006301ffc9a760e01b6001600160e01b03198316148061075d57506380ac58cd60e01b6001600160e01b03198316145b806107785750635b5e139f60e01b6001600160e01b03198316145b92915050565b6000805461078b90611db2565b80601f01602080910402602001604051908101604052809291908181526020018280546107b790611db2565b80156108045780601f106107d957610100808354040283529160200191610804565b820191906000526020600020905b8154815290600101906020018083116107e757829003601f168201915b505050505081565b6000818152600260205260409020546001600160a01b03163381148061085557506001600160a01b038116600090815260056020908152604080832033845290915290205460ff165b61087a5760405162461bcd60e51b815260040161087190611ded565b60405180910390fd5b60008281526004602052604080822080546001600160a01b0319166001600160a01b0387811691821790925591518593918516917f8c5be1e5ebec7d5bd14f71427d1e84f3dd0314c0f7b2291e5b200ac8c7c3b92591a4505050565b6108de611537565b6000908152600b6020526040902080546001600160a01b0319169055565b600d818154811061090c57600080fd5b600091825260209091200154905081565b6000818152600260205260409020546001600160a01b038481169116146109735760405162461bcd60e51b815260206004820152600a60248201526957524f4e475f46524f4d60b01b6044820152606401610871565b6001600160a01b0382166109995760405162461bcd60e51b815260040161087190611e15565b336001600160a01b03841614806109d357506001600160a01b038316600090815260056020908152604080832033845290915290205460ff165b806109f457506000818152600460205260409020546001600160a01b031633145b610a105760405162461bcd60e51b815260040161087190611ded565b6001600160a01b0380841660008181526003602090815260408083208054600019019055938616808352848320805460010190558583526002825284832080546001600160a01b03199081168317909155600490925284832080549092169091559251849392916000805160206120f483398151915291a4505050565b610a95611537565b6010805460ff19811660ff90911615179055565b610ab1611537565b610ab9611596565b565b610ac683838361091d565b6001600160a01b0382163b1580610b595750604051630a85bd0160e11b808252906001600160a01b0384169063150b7a0290610b0a90339088908790600401611e40565b6020604051808303816000875af1158015610b29573d6000803e3d6000fd5b505050506040513d601f19601f82011682018060405250810190610b4d9190611e73565b6001600160e01b031916145b610b755760405162461bcd60e51b815260040161087190611e90565b505050565b606060005b6096811015610c12576000818152600a60205260409020546001600160a01b031615801590610bc557506000818152600a60205260409020546001600160a01b03163314155b15610c0057600e80546001810182556000919091527fbb7b4a454dc3493923482f07822329ed19e8244eff582cc204f8554c3620c3fd018190555b80610c0a81611ed0565b915050610b7f565b50600e805480602002602001604051908101604052809291908181526020018280548015610c5f57602002820191906000526020600020905b815481526020019060010190808311610c4b575b5050505050905090565b610c71611537565b60405147906000906001600160a01b0384169083908381818185875af1925050503d8060008114610cbe576040519150601f19603f3d011682016040523d82523d6000602084013e610cc3565b606091505b5050905080610b755760405162461bcd60e51b815260206004820152601060248201526f2bb4ba34323930bbaa3930b739b332b960811b6044820152606401610871565b6000818152600260205260409020546001600160a01b031680610d595760405162461bcd60e51b815260206004820152600a6024820152691393d517d3525395115160b21b6044820152606401610871565b919050565b6007805461078b90611db2565b60006001600160a01b038216610db25760405162461bcd60e51b815260206004820152600c60248201526b5a45524f5f4144445245535360a01b6044820152606401610871565b506001600160a01b031660009081526003602052604090205490565b600f818154811061090c57600080fd5b610de6611537565b610ab960006115e2565b606060005b6096811015610e88576000818152600b60205260409020546001600160a01b031615801590610e3b57506000818152600b60205260409020546001600160a01b03163314155b15610e7657600f80546001810182556000919091527f8d1108e10bcb7c27dddfc02ed9d693a074039d026cf4ea4240b40f7d581ac802018190555b80610e8081611ed0565b915050610df5565b50600f805480602002602001604051908101604052809291908181526020018280548015610c5f5760200282019190600052602060002090815481526020019060010190808311610c4b575050505050905090565b6060600d805480602002602001604051908101604052809291908181526020018280548015610c5f5760200282019190600052602060002090815481526020019060010190808311610c4b575050505050905090565b610f3b61163c565b60105460ff16610f795760405162461bcd60e51b81526020600482015260096024820152684e6f7441637469766560b81b6044820152606401610871565b6000818152600960205260409020546001600160a01b031615610fcc5760405162461bcd60e51b815260206004820152600b60248201526a105b1c9958591e54dbdb1960aa1b6044820152606401610871565b6000818152600a60205260409020546001600160a01b03161580159061100957506000818152600a60205260409020546001600160a01b03163314155b156110455760405162461bcd60e51b815260206004820152600c60248201526b15dbdbdad4995cd95c9d995960a21b6044820152606401610871565b6000818152600b60205260409020546001600160a01b03161580159061108257506000818152600b60205260409020546001600160a01b03163314155b156110c25760405162461bcd60e51b815260206004820152601060248201526f576f6f6b52657365727665644672656560801b6044820152606401610871565b6008546096906110d79061ffff166001611eeb565b61ffff1611156111135760405162461bcd60e51b815260206004820152600760248201526613585e135a5b9d60ca1b6044820152606401610871565b6000818152600c60205260409020546001148015611137575066354a6ba7a1800034105b156111545760405162461bcd60e51b815260040161087190611f11565b6000818152600c602052604090205460021480156111785750666a94d74f43000034105b156111955760405162461bcd60e51b815260040161087190611f11565b600081815260096020526040812080546001600160a01b03191633908117909155600d805460018101825592527fd7b6990105719101dabeb77144f2a3385c8033acd3af97e9423a695e81ad1eb59091018290556111f39082611682565b604051819033907fd5b49d2e1d204da14878418e4fc1f9cd901baceb201070e4713ddf7798a77e2a90600090a3600880546000906112349061ffff16611f37565b91906101000a81548161ffff021916908361ffff16021790555050565b611259611537565b610ab961173c565b60065461010090046001600160a01b031690565b6001805461078b90611db2565b3360008181526005602090815260408083206001600160a01b03871680855290835292819020805460ff191686151590811790915590519081529192917f17307eab39ab6107e8899845ad3d59bd9653f200f220920489ca2b5937696c31910160405180910390a35050565b6112f6611537565b6000908152600a6020526040902080546001600160a01b0319169055565b61131f85858561091d565b6001600160a01b0384163b15806113b65750604051630a85bd0160e11b808252906001600160a01b0386169063150b7a02906113679033908a90899089908990600401611f59565b6020604051808303816000875af1158015611386573d6000803e3d6000fd5b505050506040513d601f19601f820116820180604052508101906113aa9190611e73565b6001600160e01b031916145b6113d25760405162461bcd60e51b815260040161087190611e90565b5050505050565b606060006113e683610d07565b6001600160a01b031614156114335760405162461bcd60e51b81526020600482015260136024820152724e6f6e4578697374656e74546f6b656e55524960681b6044820152606401610871565b60006007805461144290611db2565b90501161145e5760405180602001604052806000815250610778565b600761146983611779565b60405160200161147a929190611fc9565b60405160208183030381529060405292915050565b611497611537565b80516114aa90600790602084019061199c565b5050565b6114b6611537565b6001600160a01b03811661151b5760405162461bcd60e51b815260206004820152602660248201527f4f776e61626c653a206e6577206f776e657220697320746865207a65726f206160448201526564647265737360d01b6064820152608401610871565b611524816115e2565b50565b600e818154811061090c57600080fd5b33611540611261565b6001600160a01b031614610ab95760405162461bcd60e51b815260206004820181905260248201527f4f776e61626c653a2063616c6c6572206973206e6f7420746865206f776e65726044820152606401610871565b61159e61187e565b6006805460ff191690557f5db9ee0a495bf2e6ff9c91a7834c1ba4fdd244a5e8aa4e537bd38aeae4b073aa335b6040516115d89190611aeb565b60405180910390a1565b600680546001600160a01b03838116610100818102610100600160a81b031985161790945560405193909204169182907f8be0079c531659141344cd1fd0a4f28419497f9722a3daafe3b4186f6b6457e090600090a35050565b60065460ff1615610ab95760405162461bcd60e51b815260206004820152601060248201526f14185d5cd8589b194e881c185d5cd95960821b6044820152606401610871565b61168c82826118c7565b6001600160a01b0382163b15806117205750604051630a85bd0160e11b808252906001600160a01b0384169063150b7a02906116d19033906000908790600401611e40565b6020604051808303816000875af11580156116f0573d6000803e3d6000fd5b505050506040513d601f19601f820116820180604052508101906117149190611e73565b6001600160e01b031916145b6114aa5760405162461bcd60e51b815260040161087190611e90565b61174461163c565b6006805460ff191660011790557f62e78cea01bee320cd4e420270b5ea74000d11b0c9f74754ebdbfc544b05a2586115cb3390565b60608161179d5750506040805180820190915260018152600360fc1b602082015290565b8160005b81156117c757806117b181611ed0565b91506117c09050600a83612086565b91506117a1565b6000816001600160401b038111156117e1576117e1611cec565b6040519080825280601f01601f19166020018201604052801561180b576020820181803683370190505b5090505b84156118765761182060018361209a565b915061182d600a866120b1565b6118389060306120c5565b60f81b81838151811061184d5761184d6120dd565b60200101906001600160f81b031916908160001a90535061186f600a86612086565b945061180f565b949350505050565b60065460ff16610ab95760405162461bcd60e51b815260206004820152601460248201527314185d5cd8589b194e881b9bdd081c185d5cd95960621b6044820152606401610871565b6001600160a01b0382166118ed5760405162461bcd60e51b815260040161087190611e15565b6000818152600260205260409020546001600160a01b0316156119435760405162461bcd60e51b815260206004820152600e60248201526d1053149150511657d3525395115160921b6044820152606401610871565b6001600160a01b038216600081815260036020908152604080832080546001019055848352600290915280822080546001600160a01b0319168417905551839291906000805160206120f4833981519152908290a45050565b8280546119a890611db2565b90600052602060002090601f0160209004810192826119ca5760008555611a10565b82601f106119e357805160ff1916838001178555611a10565b82800160010185558215611a10579182015b82811115611a105782518255916020019190600101906119f5565b50611a1c929150611a20565b5090565b5b80821115611a1c5760008155600101611a21565b6001600160e01b03198116811461152457600080fd5b600060208284031215611a5d57600080fd5b8135611a6881611a35565b9392505050565b60005b83811015611a8a578181015183820152602001611a72565b83811115611a99576000848401525b50505050565b6020815260008251806020840152611abe816040850160208701611a6f565b601f01601f19169190910160400192915050565b600060208284031215611ae457600080fd5b5035919050565b6001600160a01b0391909116815260200190565b6001600160a01b038116811461152457600080fd5b60008060408385031215611b2757600080fd5b8235611b3281611aff565b946020939093013593505050565b600080600060608486031215611b5557600080fd5b8335611b6081611aff565b92506020840135611b7081611aff565b929592945050506040919091013590565b6020808252825182820181905260009190848201906040850190845b81811015611bb957835183529284019291840191600101611b9d565b50909695505050505050565b600060208284031215611bd757600080fd5b8135611a6881611aff565b60008060408385031215611bf557600080fd5b8235611c0081611aff565b915060208301358015158114611c1557600080fd5b809150509250929050565b600080600080600060808688031215611c3857600080fd5b8535611c4381611aff565b94506020860135611c5381611aff565b93506040860135925060608601356001600160401b0380821115611c7657600080fd5b818801915088601f830112611c8a57600080fd5b813581811115611c9957600080fd5b896020828501011115611cab57600080fd5b9699959850939650602001949392505050565b60008060408385031215611cd157600080fd5b8235611cdc81611aff565b91506020830135611c1581611aff565b634e487b7160e01b600052604160045260246000fd5b600060208284031215611d1457600080fd5b81356001600160401b0380821115611d2b57600080fd5b818401915084601f830112611d3f57600080fd5b813581811115611d5157611d51611cec565b604051601f8201601f19908116603f01168101908382118183101715611d7957611d79611cec565b81604052828152876020848701011115611d9257600080fd5b826020860160208301376000928101602001929092525095945050505050565b600181811c90821680611dc657607f821691505b60208210811415611de757634e487b7160e01b600052602260045260246000fd5b50919050565b6020808252600e908201526d1393d517d055551213d49256915160921b604082015260600190565b6020808252601190820152701253959053125117d49150d25412515395607a1b604082015260600190565b6001600160a01b039384168152919092166020820152604081019190915260806060820181905260009082015260a00190565b600060208284031215611e8557600080fd5b8151611a6881611a35565b60208082526010908201526f155394d0519157d49150d2541251539560821b604082015260600190565b634e487b7160e01b600052601160045260246000fd5b6000600019821415611ee457611ee4611eba565b5060010190565b600061ffff808316818516808303821115611f0857611f08611eba565b01949350505050565b6020808252600c908201526b09cdee88adcdeeaced08aa8960a31b604082015260600190565b600061ffff80831681811415611f4f57611f4f611eba565b6001019392505050565b6001600160a01b038681168252851660208201526040810184905260806060820181905281018290526000828460a0840137600060a0848401015260a0601f19601f85011683010190509695505050505050565b60008151611fbf818560208601611a6f565b9290920192915050565b600080845481600182811c915080831680611fe557607f831692505b602080841082141561200557634e487b7160e01b86526022600452602486fd5b818015612019576001811461202a57612057565b60ff19861689528489019650612057565b60008b81526020902060005b8681101561204f5781548b820152908501908301612036565b505084890196505b5050505050506120678185611fad565b95945050505050565b634e487b7160e01b600052601260045260246000fd5b60008261209557612095612070565b500490565b6000828210156120ac576120ac611eba565b500390565b6000826120c0576120c0612070565b500690565b600082198211156120d8576120d8611eba565b500190565b634e487b7160e01b600052603260045260246000fdfeddf252ad1be2c89b69c2b068fc378daa952ba7f163c4a11628f55a4df523b3efa264697066735822122060236126b2c36c976d518451e3033a2a2d0d611bdd425f36407a959cbeacb5c364736f6c634300080a0033",
  "linkReferences": {},
  "deployedLinkReferences": {}
}